:1000000019C028C027C026C025C024C023C022C0D4
:1000100021C020C0B4C09DC01DC01CC01BC01AC0E0
:1000200019C084C017C016C015C014C013C012C0B8
:1000300011C010C011241FBECFEFD4E0DEBFCDBF72
:1000400021E0A0E0B1E001C01D92A430B207E1F7C9
:1000500018D0A6C0D5CF882329F0813069F410923A
:1000600003010AC0809103018F5F80930301809197
:1000700081008F7B80938100809186009091870022
:10008000089581E184B980EC8CBD1EBC85E591E2C8
:10009000909389008093880040E050E0CAE4D2E267
:1000A00011E0209AF894189A8FE18A95F1F7189A3E
:1000B00078942098C093810096B3966296BBD093B3
:1000C0006F0080910201811121C080910301813074
:1000D00019F480E0C0DFAC0180910301833089F71F
:1000E000F894109203012091860030918700241B20
:1000F000350B309301012093000180910001909114
:1001000001018EBD109302017894DBCF10920201A1
:1001100010928100109285001092840010926F005E
:1001200089E993E00197F1F700C0BBCF1F920F92CE
:100130000FB60F9211248F939F938091000190919D
:1001400001019EBD9F918F910F900FBE0F901F9048
:1001500018951F920F920FB60F9211248F9381E082
:1001600080930201109203011EBC109201011092B3
:1001700000018F910F900FBE0F901F9018951F9246
:100180000F920FB60F9211248F93809103018F5F0E
:10019000809303018F910F900FBE0F901F901895C1
:0401A000F894FFCF01
:00000001FF
